{
  "_format": "hh-sol-artifact-1",
  "contractName": "MyEpicNFT",
  "sourceName": "contracts/MyEpicNFT.sol",
  "abi": [
    {
      "inputs": [],
      "stateMutability": "nonpayable",
      "type": "constructor"
    },
    {
      "anonymous": false,
      "inputs": [
        {
          "indexed": true,
          "internalType": "address",
          "name": "owner",
          "type": "address"
        },
        {
          "indexed": true,
          "internalType": "address",
          "name": "approved",
          "type": "address"
        },
        {
          "indexed": true,
          "internalType": "uint256",
          "name": "tokenId",
          "type": "uint256"
        }
      ],
      "name": "Approval",
      "type": "event"
    },
    {
      "anonymous": false,
      "inputs": [
        {
          "indexed": true,
          "internalType": "address",
          "name": "owner",
          "type": "address"
        },
        {
          "indexed": true,
          "internalType": "address",
          "name": "operator",
          "type": "address"
        },
        {
          "indexed": false,
          "internalType": "bool",
          "name": "approved",
          "type": "bool"
        }
      ],
      "name": "ApprovalForAll",
      "type": "event"
    },
    {
      "anonymous": false,
      "inputs": [
        {
          "indexed": true,
          "internalType": "address",
          "name": "from",
          "type": "address"
        },
        {
          "indexed": true,
          "internalType": "address",
          "name": "to",
          "type": "address"
        },
        {
          "indexed": true,
          "internalType": "uint256",
          "name": "tokenId",
          "type": "uint256"
        }
      ],
      "name": "Transfer",
      "type": "event"
    },
    {
      "inputs": [
        {
          "internalType": "address",
          "name": "to",
          "type": "address"
        },
        {
          "internalType": "uint256",
          "name": "tokenId",
          "type": "uint256"
        }
      ],
      "name": "approve",
      "outputs": [],
      "stateMutability": "nonpayable",
      "type": "function"
    },
    {
      "inputs": [
        {
          "internalType": "address",
          "name": "owner",
          "type": "address"
        }
      ],
      "name": "balanceOf",
      "outputs": [
        {
          "internalType": "uint256",
          "name": "",
          "type": "uint256"
        }
      ],
      "stateMutability": "view",
      "type": "function"
    },
    {
      "inputs": [
        {
          "internalType": "uint256",
          "name": "tokenId",
          "type": "uint256"
        }
      ],
      "name": "getApproved",
      "outputs": [
        {
          "internalType": "address",
          "name": "",
          "type": "address"
        }
      ],
      "stateMutability": "view",
      "type": "function"
    },
    {
      "inputs": [
        {
          "internalType": "address",
          "name": "owner",
          "type": "address"
        },
        {
          "internalType": "address",
          "name": "operator",
          "type": "address"
        }
      ],
      "name": "isApprovedForAll",
      "outputs": [
        {
          "internalType": "bool",
          "name": "",
          "type": "bool"
        }
      ],
      "stateMutability": "view",
      "type": "function"
    },
    {
      "inputs": [],
      "name": "makeAnEpicNFT",
      "outputs": [],
      "stateMutability": "nonpayable",
      "type": "function"
    },
    {
      "inputs": [],
      "name": "name",
      "outputs": [
        {
          "internalType": "string",
          "name": "",
          "type": "string"
        }
      ],
      "stateMutability": "view",
      "type": "function"
    },
    {
      "inputs": [
        {
          "internalType": "uint256",
          "name": "tokenId",
          "type": "uint256"
        }
      ],
      "name": "ownerOf",
      "outputs": [
        {
          "internalType": "address",
          "name": "",
          "type": "address"
        }
      ],
      "stateMutability": "view",
      "type": "function"
    },
    {
      "inputs": [
        {
          "internalType": "uint256",
          "name": "tokenId",
          "type": "uint256"
        }
      ],
      "name": "pickRandomAdjective",
      "outputs": [
        {
          "internalType": "string",
          "name": "",
          "type": "string"
        }
      ],
      "stateMutability": "view",
      "type": "function"
    },
    {
      "inputs": [
        {
          "internalType": "uint256",
          "name": "tokenId",
          "type": "uint256"
        }
      ],
      "name": "pickRandomNoun",
      "outputs": [
        {
          "internalType": "string",
          "name": "",
          "type": "string"
        }
      ],
      "stateMutability": "view",
      "type": "function"
    },
    {
      "inputs": [
        {
          "internalType": "address",
          "name": "from",
          "type": "address"
        },
        {
          "internalType": "address",
          "name": "to",
          "type": "address"
        },
        {
          "internalType": "uint256",
          "name": "tokenId",
          "type": "uint256"
        }
      ],
      "name": "safeTransferFrom",
      "outputs": [],
      "stateMutability": "nonpayable",
      "type": "function"
    },
    {
      "inputs": [
        {
          "internalType": "address",
          "name": "from",
          "type": "address"
        },
        {
          "internalType": "address",
          "name": "to",
          "type": "address"
        },
        {
          "internalType": "uint256",
          "name": "tokenId",
          "type": "uint256"
        },
        {
          "internalType": "bytes",
          "name": "_data",
          "type": "bytes"
        }
      ],
      "name": "safeTransferFrom",
      "outputs": [],
      "stateMutability": "nonpayable",
      "type": "function"
    },
    {
      "inputs": [
        {
          "internalType": "address",
          "name": "operator",
          "type": "address"
        },
        {
          "internalType": "bool",
          "name": "approved",
          "type": "bool"
        }
      ],
      "name": "setApprovalForAll",
      "outputs": [],
      "stateMutability": "nonpayable",
      "type": "function"
    },
    {
      "inputs": [
        {
          "internalType": "bytes4",
          "name": "interfaceId",
          "type": "bytes4"
        }
      ],
      "name": "supportsInterface",
      "outputs": [
        {
          "internalType": "bool",
          "name": "",
          "type": "bool"
        }
      ],
      "stateMutability": "view",
      "type": "function"
    },
    {
      "inputs": [],
      "name": "symbol",
      "outputs": [
        {
          "internalType": "string",
          "name": "",
          "type": "string"
        }
      ],
      "stateMutability": "view",
      "type": "function"
    },
    {
      "inputs": [
        {
          "internalType": "uint256",
          "name": "tokenId",
          "type": "uint256"
        }
      ],
      "name": "tokenURI",
      "outputs": [
        {
          "internalType": "string",
          "name": "",
          "type": "string"
        }
      ],
      "stateMutability": "view",
      "type": "function"
    },
    {
      "inputs": [
        {
          "internalType": "address",
          "name": "from",
          "type": "address"
        },
        {
          "internalType": "address",
          "name": "to",
          "type": "address"
        },
        {
          "internalType": "uint256",
          "name": "tokenId",
          "type": "uint256"
        }
      ],
      "name": "transferFrom",
      "outputs": [],
      "stateMutability": "nonpayable",
      "type": "function"
    },
    {
      "inputs": [
        {
          "internalType": "uint256",
          "name": "v",
          "type": "uint256"
        }
      ],
      "name": "uintToString",
      "outputs": [
        {
          "internalType": "string",
          "name": "",
          "type": "string"
        }
      ],
      "stateMutability": "pure",
      "type": "function"
    }
  ],
  "bytecode": "0x60806040526040518060e0016040528060be81526020016200af9060be913960089080519060200190620000359291906200715c565b50604051806101a0016040528061016981526020016200b04e6101699139600990805190602001906200006a9291906200715c565b5060405180612ba001604052806040518060400160405280600881526020017f6162756e64616e7400000000000000000000000000000000000000000000000081525081526020016040518060400160405280600981526020017f616461707461626c65000000000000000000000000000000000000000000000081525081526020016040518060400160405280600881526020017f61646f7261626c6500000000000000000000000000000000000000000000000081525081526020016040518060400160405280600681526020017f61646f726564000000000000000000000000000000000000000000000000000081525081526020016040518060400160405280600b81526020017f616476656e7475726f757300000000000000000000000000000000000000000081525081526020016040518060400160405280600781526020017f61666661626c650000000000000000000000000000000000000000000000000081525081526020016040518060400160405280600c81526020017f616666656374696f6e617465000000000000000000000000000000000000000081525081526020016040518060400160405280600981526020017f616772656561626c65000000000000000000000000000000000000000000000081525081526020016040518060400160405280600881526020017f616c6c6f77696e6700000000000000000000000000000000000000000000000081525081526020016040518060400160405280600a81526020017f616c74727569737469630000000000000000000000000000000000000000000081525081526020016040518060400160405280600881526020017f616d6172616e746800000000000000000000000000000000000000000000000081525081526020016040518060400160405280600781526020017f616d617a696e670000000000000000000000000000000000000000000000000081525081526020016040518060400160405280600581526020017f616d62657200000000000000000000000000000000000000000000000000000081525081526020016040518060400160405280600981526020017f616d626974696f7573000000000000000000000000000000000000000000000081525081526020016040518060400160405280600881526020017f616d65746879737400000000000000000000000000000000000000000000000081525081526020016040518060400160405280600781526020017f616d6961626c650000000000000000000000000000000000000000000000000081525081526020016040518060400160405280600881526020017f616d696361626c6500000000000000000000000000000000000000000000000081525081526020016040518060400160405280600781526020017f616d7573696e670000000000000000000000000000000000000000000000000081525081526020016040518060400160405280600b81526020017f617070726563696174656400000000000000000000000000000000000000000081525081526020016040518060400160405280600c81526020017f617070726563696174697665000000000000000000000000000000000000000081525081526020016040518060400160405280600781526020017f61707269636f740000000000000000000000000000000000000000000000000081525081526020016040518060400160405280600a81526020017f617175616d6172696e650000000000000000000000000000000000000000000081525081526020016040518060400160405280600981526020017f61757468656e746963000000000000000000000000000000000000000000000081525081526020016040518060400160405280600581526020017f617761726500000000000000000000000000000000000000000000000000000081525081526020016040518060400160405280600781526020017f617765736f6d650000000000000000000000000000000000000000000000000081525081526020016040518060400160405280600581526020017f617a75726500000000000000000000000000000000000000000000000000000081525081526020016040518060400160405280600881526020017f62616c616e63656400000000000000000000000000000000000000000000000081525081526020016040518060400160405280600981526020017f62656175746966756c000000000000000000000000000000000000000000000081525081526020016040518060400160405280600581526020017f626569676500000000000000000000000000000000000000000000000000000081525081526020016040518060400160405280600781526020017f62656c6f7665640000000000000000000000000000000000000000000000000081525081526020016040518060400160405280600481526020017f626573740000000000000000000000000000000000000000000000000000000081525081526020016040518060400160405280600581526020017f626c61636b00000000000000000000000000000000000000000000000000000081525081526020016040518060400160405280600781526020017f626c65737365640000000000000000000000000000000000000000000000000081525081526020016040518060400160405280600881526020017f626c69737366756c00000000000000000000000000000000000000000000000081525081526020016040518060400160405280600a81526020017f626c69746865736f6d650000000000000000000000000000000000000000000081525081526020016040518060400160405280600481526020017f626c75650000000000000000000000000000000000000000000000000000000081525081526020016040518060400160405280600481526020017f626f6c640000000000000000000000000000000000000000000000000000000081525081526020016040518060400160405280600581526020017f627261766500000000000000000000000000000000000000000000000000000081525081526020016040518060400160405280600c81526020017f62726561746874616b696e67000000000000000000000000000000000000000081525081526020016040518060400160405280600681526020017f627269676874000000000000000000000000000000000000000000000000000081525081526020016040518060400160405280600981526020017f6272696c6c69616e74000000000000000000000000000000000000000000000081525081526020016040518060400160405280600681526020017f62726f6e7a65000000000000000000000000000000000000000000000000000081525081526020016040518060400160405280600581526020017f62726f776e00000000000000000000000000000000000000000000000000000081525081526020016040518060400160405280600881526020017f62757267756e647900000000000000000000000000000000000000000000000081525081526020016040518060400160405280600481526020017f63616c6d0000000000000000000000000000000000000000000000000000000081525081526020016040518060400160405280600781526020017f63617061626c650000000000000000000000000000000000000000000000000081525081526020016040518060400160405280600781526020017f6361726566756c0000000000000000000000000000000000000000000000000081525081526020016040518060400160405280600681526020017f636172696e67000000000000000000000000000000000000000000000000000081525081526020016040518060400160405280600781526020017f6361726d696e650000000000000000000000000000000000000000000000000081525081526020016040518060400160405280600881526020017f63656e746572656400000000000000000000000000000000000000000000000081525081526020016040518060400160405280600681526020017f636572697365000000000000000000000000000000000000000000000000000081525081526020016040518060400160405280600881526020017f636572756c65616e00000000000000000000000000000000000000000000000081525081526020016040518060400160405280600981526020017f6368616d7061676e65000000000000000000000000000000000000000000000081525081526020016040518060400160405280600b81526020017f6368617269736d6174696300000000000000000000000000000000000000000081525081526020016040518060400160405280600881526020017f636861726d696e6700000000000000000000000000000000000000000000000081525081526020016040518060400160405280600881526020017f636865657266756c00000000000000000000000000000000000000000000000081525081526020016040518060400160405280600981526020017f636865726973686564000000000000000000000000000000000000000000000081525081526020016040518060400160405280600981526020017f63686f636f6c617465000000000000000000000000000000000000000000000081525081526020016040518060400160405280600581526020017f636c65616e00000000000000000000000000000000000000000000000000000081525081526020016040518060400160405280600681526020017f636f62616c74000000000000000000000000000000000000000000000000000081525081526020016040518060400160405280600681526020017f636f66666565000000000000000000000000000000000000000000000000000081525081526020016040518060400160405280600b81526020017f636f6d666f727461626c6500000000000000000000000000000000000000000081525081526020016040518060400160405280600d81526020017f636f6d6d756e696361746976650000000000000000000000000000000000000081525081526020016040518060400160405280600d81526020017f636f6d70617373696f6e6174650000000000000000000000000000000000000081525081526020016040518060400160405280600981526020017f636f6e666964656e74000000000000000000000000000000000000000000000081525081526020016040518060400160405280600d81526020017f636f6e736369656e74696f75730000000000000000000000000000000000000081525081526020016040518060400160405280600b81526020017f636f6e736964657261746500000000000000000000000000000000000000000081525081526020016040518060400160405280600781526020017f636f6e74656e740000000000000000000000000000000000000000000000000081525081526020016040518060400160405280600981526020017f636f6e76697669616c000000000000000000000000000000000000000000000081525081526020016040518060400160405280600681526020017f636f70706572000000000000000000000000000000000000000000000000000081525081526020016040518060400160405280600581526020017f636f72616c00000000000000000000000000000000000000000000000000000081525081526020016040518060400160405280600a81526020017f636f75726167656f75730000000000000000000000000000000000000000000081525081526020016040518060400160405280600981526020017f636f757274656f7573000000000000000000000000000000000000000000000081525081526020016040518060400160405280600881526020017f637265617469766500000000000000000000000000000000000000000000000081525081526020016040518060400160405280600781526020017f6372696d736f6e0000000000000000000000000000000000000000000000000081525081526020016040518060400160405280600481526020017f637574650000000000000000000000000000000000000000000000000000000081525081526020016040518060400160405280600481526020017f6379616e0000000000000000000000000000000000000000000000000000000081525081526020016040518060400160405280600581526020017f64616e647900000000000000000000000000000000000000000000000000000081525081526020016040518060400160405280600681526020017f646172696e67000000000000000000000000000000000000000000000000000081525081526020016040518060400160405280600781526020017f64617a7a6c65640000000000000000000000000000000000000000000000000081525081526020016040518060400160405280600881526020017f646563697369766500000000000000000000000000000000000000000000000081525081526020016040518060400160405280600981526020017f646564696361746564000000000000000000000000000000000000000000000081525081526020016040518060400160405280600a81526020017f64656c6967687466756c0000000000000000000000000000000000000000000081525081526020016040518060400160405280600a81526020017f64657465726d696e65640000000000000000000000000000000000000000000081525081526020016040518060400160405280600881526020017f64696c6967656e7400000000000000000000000000000000000000000000000081525081526020016040518060400160405280600a81526020017f6469706c6f6d617469630000000000000000000000000000000000000000000081525081526020016040518060400160405280600881526020017f646973637265657400000000000000000000000000000000000000000000000081525081526020016040518060400160405280600681526020017f646976696e65000000000000000000000000000000000000000000000000000081525081526020016040518060400160405280600781526020017f64796e616d69630000000000000000000000000000000000000000000000000081525081526020016040518060400160405280600581526020017f656167657200000000000000000000000000000000000000000000000000000081525081526020016040518060400160405280600981526020017f65617379676f696e67000000000000000000000000000000000000000000000081525081526020016040518060400160405280600781526020017f656d6572616c640000000000000000000000000000000000000000000000000081525081526020016040518060400160405280600981526020017f656d6f74696f6e616c000000000000000000000000000000000000000000000081525081526020016040518060400160405280600a81526020017f656d70617468657469630000000000000000000000000000000000000000000081525081526020016040518060400160405280600881526020017f656d70617468696300000000000000000000000000000000000000000000000081525081526020016040518060400160405280600981526020017f656d706f7765726564000000000000000000000000000000000000000000000081525081526020016040518060400160405280600981526020017f656e6368616e746564000000000000000000000000000000000000000000000081525081526020016040518060400160405280600781526020017f656e646c6573730000000000000000000000000000000000000000000000000081525081526020016040518060400160405280600981526020017f656e65726765746963000000000000000000000000000000000000000000000081525081526020016040518060400160405280600981526020017f656e657267697a6564000000000000000000000000000000000000000000000081525081526020016040518060400160405280600b81526020017f656e6c69676874656e656400000000000000000000000000000000000000000081525081526020016040518060400160405280600981526020017f656e6c6976656e6564000000000000000000000000000000000000000000000081525081526020016040518060400160405280600c81526020017f656e74687573696173746963000000000000000000000000000000000000000081525081526020016040518060400160405280600481526020017f6572696e0000000000000000000000000000000000000000000000000000000081525081526020016040518060400160405280600781526020017f657465726e616c0000000000000000000000000000000000000000000000000081525081526020016040518060400160405280600981526020017f657863656c6c656e74000000000000000000000000000000000000000000000081525081526020016040518060400160405280600781526020017f657863697465640000000000000000000000000000000000000000000000000081525081526020016040518060400160405280600b81526020017f657868696c61726174656400000000000000000000000000000000000000000081525081526020016040518060400160405280600881526020017f657870616e64656400000000000000000000000000000000000000000000000081525081526020016040518060400160405280600981526020017f657870616e73697665000000000000000000000000000000000000000000000081525081526020016040518060400160405280600981526020017f657871756973697465000000000000000000000000000000000000000000000081525081526020016040518060400160405280600d81526020017f65787472616f7264696e6172790000000000000000000000000000000000000081525081526020016040518060400160405280600981526020017f657875626572616e74000000000000000000000000000000000000000000000081525081526020016040518060400160405280600881526020017f666162756c6f757300000000000000000000000000000000000000000000000081525081526020016040518060400160405280600881526020017f666169746866756c00000000000000000000000000000000000000000000000081525081526020016040518060400160405280600981526020017f66616e746173746963000000000000000000000000000000000000000000000081525081526020016040518060400160405280600981526020017f6661766f7261626c65000000000000000000000000000000000000000000000081525081526020016040518060400160405280600881526020017f666561726c65737300000000000000000000000000000000000000000000000081525081526020016040518060400160405280600a81526020017f666c6f757269736865640000000000000000000000000000000000000000000081525081526020016040518060400160405280600781526020017f666c6f77696e670000000000000000000000000000000000000000000000000081525081526020016040518060400160405280600781526020017f666f63757365640000000000000000000000000000000000000000000000000081525081526020016040518060400160405280600881526020017f666f72636566756c00000000000000000000000000000000000000000000000081525081526020016040518060400160405280600981526020017f666f72676976696e67000000000000000000000000000000000000000000000081525081526020016040518060400160405280600a81526020017f666f72747569746f75730000000000000000000000000000000000000000000081525081526020016040518060400160405280600581526020017f6672616e6b00000000000000000000000000000000000000000000000000000081525081526020016040518060400160405280600481526020017f667265650000000000000000000000000000000000000000000000000000000081525081526020016040518060400160405280600881526020017f667269656e646c7900000000000000000000000000000000000000000000000081525081526020016040518060400160405280600981526020017f66756c66696c6c6564000000000000000000000000000000000000000000000081525081526020016040518060400160405280600381526020017f66756e000000000000000000000000000000000000000000000000000000000081525081526020016040518060400160405280600581526020017f66756e6e7900000000000000000000000000000000000000000000000000000081525081526020016040518060400160405280600881526020017f67656e65726f757300000000000000000000000000000000000000000000000081525081526020016040518060400160405280600681526020017f67656e69616c000000000000000000000000000000000000000000000000000081525081526020016040518060400160405280600681526020017f67656e697573000000000000000000000000000000000000000000000000000081525081526020016040518060400160405280600681526020017f67656e746c65000000000000000000000000000000000000000000000000000081525081526020016040518060400160405280600781526020017f67656e75696e650000000000000000000000000000000000000000000000000081525081526020016040518060400160405280600681526020017f676976696e67000000000000000000000000000000000000000000000000000081525081526020016040518060400160405280600481526020017f676c61640000000000000000000000000000000000000000000000000000000081525081526020016040518060400160405280600881526020017f676c6f72696f757300000000000000000000000000000000000000000000000081525081526020016040518060400160405280600781526020017f676c6f77696e670000000000000000000000000000000000000000000000000081525081526020016040518060400160405280600481526020017f676f6c640000000000000000000000000000000000000000000000000000000081525081526020016040518060400160405280600481526020017f676f6f640000000000000000000000000000000000000000000000000000000081525081526020016040518060400160405280600881526020017f676f6f646e65737300000000000000000000000000000000000000000000000081525081526020016040518060400160405280600881526020017f677261636566756c00000000000000000000000000000000000000000000000081525081526020016040518060400160405280600881526020017f67726163696f757300000000000000000000000000000000000000000000000081525081526020016040518060400160405280600881526020017f677261746566756c00000000000000000000000000000000000000000000000081525081526020016040518060400160405280600481526020017f677261790000000000000000000000000000000000000000000000000000000081525081526020016040518060400160405280600581526020017f677265617400000000000000000000000000000000000000000000000000000081525081526020016040518060400160405280600581526020017f677265656e00000000000000000000000000000000000000000000000000000081525081526020016040518060400160405280600a81526020017f677265676172696f75730000000000000000000000000000000000000000000081525081526020016040518060400160405280600881526020017f67726f756e64656400000000000000000000000000000000000000000000000081525081526020016040518060400160405280600581526020017f686170707900000000000000000000000000000000000000000000000000000081525081526020016040518060400160405280600981526020017f6861726c657175696e000000000000000000000000000000000000000000000081525081526020016040518060400160405280600a81526020017f6861726d6f6e696f75730000000000000000000000000000000000000000000081525081526020016040518060400160405280600781526020017f6865616c7468790000000000000000000000000000000000000000000000000081525081526020016040518060400160405280600981526020017f686561727466756c6c000000000000000000000000000000000000000000000081525081526020016040518060400160405280600c81526020017f68656172747761726d696e67000000000000000000000000000000000000000081525081526020016040518060400160405280600681526020017f68656176656e000000000000000000000000000000000000000000000000000081525081526020016040518060400160405280600781526020017f68656c7066756c0000000000000000000000000000000000000000000000000081525081526020016040518060400160405280600481526020017f686f6c790000000000000000000000000000000000000000000000000000000081525081526020016040518060400160405280600681526020017f686f6e657374000000000000000000000000000000000000000000000000000081525081526020016040518060400160405280600781526020017f686f706566756c0000000000000000000000000000000000000000000000000081525081526020016040518060400160405280600881526020017f68756d6f726f757300000000000000000000000000000000000000000000000081525081526020016040518060400160405280600b81526020017f696c6c756d696e6174656400000000000000000000000000000000000000000081525081526020016040518060400160405280600b81526020017f696d6167696e617469766500000000000000000000000000000000000000000081525081526020016040518060400160405280600981526020017f696d7061727469616c000000000000000000000000000000000000000000000081525081526020016040518060400160405280600c81526020017f696e636f6d70617261626c65000000000000000000000000000000000000000081525081526020016040518060400160405280600a81526020017f696e6372656469626c650000000000000000000000000000000000000000000081525081526020016040518060400160405280600b81526020017f696e646570656e64656e7400000000000000000000000000000000000000000081525081526020016040518060400160405280600681526020017f696e6469676f000000000000000000000000000000000000000000000000000081525081526020016040518060400160405280600981526020017f696e65666661626c65000000000000000000000000000000000000000000000081525081526020016040518060400160405280600a81526020017f696e6e6f7661746976650000000000000000000000000000000000000000000081525081526020016040518060400160405280600d81526020017f696e737069726174696f6e616c0000000000000000000000000000000000000081525081526020016040518060400160405280600881526020017f696e73706972656400000000000000000000000000000000000000000000000081525081526020016040518060400160405280600c81526020017f696e74656c6c65637475616c000000000000000000000000000000000000000081525081526020016040518060400160405280600b81526020017f696e74656c6c6967656e7400000000000000000000000000000000000000000081525081526020016040518060400160405280600981526020017f696e74756974697665000000000000000000000000000000000000000000000081525081526020016040518060400160405280600981526020017f696e76656e74697665000000000000000000000000000000000000000000000081525081526020016040518060400160405280600b81526020017f696e7669676f726174656400000000000000000000000000000000000000000081525081526020016040518060400160405280600881526020017f696e766f6c76656400000000000000000000000000000000000000000000000081525081526020016040518060400160405280600581526020017f69766f727900000000000000000000000000000000000000000000000000000081525081526020016040518060400160405280600481526020017f6a6164650000000000000000000000000000000000000000000000000000000081525081526020016040518060400160405280600681526020017f6a617a7a6564000000000000000000000000000000000000000000000000000081525081526020016040518060400160405280600581526020017f6a6f6c6c7900000000000000000000000000000000000000000000000000000081525081526020016040518060400160405280600681526020017f6a6f7669616c000000000000000000000000000000000000000000000000000081525081526020016040518060400160405280600681526020017f6a6f7966756c000000000000000000000000000000000000000000000000000081525081526020016040518060400160405280600681526020017f6a6f796f7573000000000000000000000000000000000000000000000000000081525081526020016040518060400160405280600881526020017f6a7562696c616e7400000000000000000000000000000000000000000000000081525081526020016040518060400160405280600581526020017f6a7569637900000000000000000000000000000000000000000000000000000081525081526020016040518060400160405280600481526020017f6a7573740000000000000000000000000000000000000000000000000000000081525081526020016040518060400160405280600b81526020017f6a7576656e657363656e7400000000000000000000000000000000000000000081525081526020016040518060400160405280600581526020017f6b616c6f6e00000000000000000000000000000000000000000000000000000081525081526020016040518060400160405280600481526020017f6b696e640000000000000000000000000000000000000000000000000000000081525081526020016040518060400160405280600881526020017f6b69737361626c6500000000000000000000000000000000000000000000000081525081526020016040518060400160405280600d81526020017f6b6e6f776c6564676561626c650000000000000000000000000000000000000081525081526020016040518060400160405280600881526020017f6c6176656e64657200000000000000000000000000000000000000000000000081525081526020016040518060400160405280600581526020017f6c656d6f6e00000000000000000000000000000000000000000000000000000081525081526020016040518060400160405280600581526020017f6c696c616300000000000000000000000000000000000000000000000000000081525081526020016040518060400160405280600481526020017f6c696d650000000000000000000000000000000000000000000000000000000081525081526020016040518060400160405280600681526020017f6c6976656c79000000000000000000000000000000000000000000000000000081525081526020016040518060400160405280600781526020017f6c6f7661626c650000000000000000000000000000000000000000000000000081525081526020016040518060400160405280600681526020017f6c6f76656c79000000000000000000000000000000000000000000000000000081525081526020016040518060400160405280600681526020017f6c6f76696e67000000000000000000000000000000000000000000000000000081525081526020016040518060400160405280600581526020017f6c6f79616c00000000000000000000000000000000000000000000000000000081525081526020016040518060400160405280600581526020017f6c75636b7900000000000000000000000000000000000000000000000000000081525081526020016040518060400160405280600981526020017f6c75787572696f7573000000000000000000000000000000000000000000000081525081526020016040518060400160405280600781526020017f6d6167656e74610000000000000000000000000000000000000000000000000081525081526020016040518060400160405280600781526020017f6d61676963616c0000000000000000000000000000000000000000000000000081525081526020016040518060400160405280600b81526020017f6d61676e69666963656e7400000000000000000000000000000000000000000081525081526020016040518060400160405280600681526020017f6d61726f6f6e000000000000000000000000000000000000000000000000000081525081526020016040518060400160405280600981526020017f6d617276656c6f7573000000000000000000000000000000000000000000000081525081526020016040518060400160405280600581526020017f6d6175766500000000000000000000000000000000000000000000000000000081525081526020016040518060400160405280600981526020017f6d656d6f7261626c65000000000000000000000000000000000000000000000081525081526020016040518060400160405280600781526020017f6d696e6466756c0000000000000000000000000000000000000000000000000081525081526020016040518060400160405280600781526020017f6d697261636c650000000000000000000000000000000000000000000000000081525081526020016040518060400160405280600a81526020017f6d69726163756c6f75730000000000000000000000000000000000000000000081525081526020016040518060400160405280600881526020017f6d6972746866756c00000000000000000000000000000000000000000000000081525081526020016040518060400160405280600681526020017f6d6f64657374000000000000000000000000000000000000000000000000000081525081526020016040518060400160405280600481526020017f6e6561740000000000000000000000000000000000000000000000000000000081525081526020016040518060400160405280600481526020017f6e6963650000000000000000000000000000000000000000000000000000000081525081526020016040518060400160405280600581526020017f6e6f626c6500000000000000000000000000000000000000000000000000000081525081526020016040518060400160405280600981526020017f6e6f75726973686564000000000000000000000000000000000000000000000081525081526020016040518060400160405280600881526020017f6e7572747572656400000000000000000000000000000000000000000000000081525081526020016040518060400160405280600581526020017f6f6368726500000000000000000000000000000000000000000000000000000081525081526020016040518060400160405280600581526020017f6f6c69766500000000000000000000000000000000000000000000000000000081525081526020016040518060400160405280600481526020017f6f70656e0000000000000000000000000000000000000000000000000000000081525081526020016040518060400160405280600a81526020017f6f7074696d69737469630000000000000000000000000000000000000000000081525081526020016040518060400160405280600781526020017f6f70756c656e740000000000000000000000000000000000000000000000000081525081526020016040518060400160405280600681526020017f6f72616e6765000000000000000000000000000000000000000000000000000081525081526020016040518060400160405280600681526020017f6f7263686964000000000000000000000000000000000000000000000000000081525081526020016040518060400160405280600881526020017f6f726967696e616c00000000000000000000000000000000000000000000000081525081526020016040518060400160405280600b81526020017f6f75747374616e64696e6700000000000000000000000000000000000000000081525081526020016040518060400160405280600a81526020017f70617373696f6e6174650000000000000000000000000000000000000000000081525081526020016040518060400160405280600781526020017f70617469656e740000000000000000000000000000000000000000000000000081525081526020016040518060400160405280600881526020017f706561636566756c00000000000000000000000000000000000000000000000081525081526020016040518060400160405280600581526020017f706561636800000000000000000000000000000000000000000000000000000081525081526020016040518060400160405280600481526020017f706561720000000000000000000000000000000000000000000000000000000081525081526020016040518060400160405280600781526020017f706572666563740000000000000000000000000000000000000000000000000081525081526020016040518060400160405280600a81526020017f7065726977696e6b6c650000000000000000000000000000000000000000000081525081526020016040518060400160405280600a81526020017f70657273697374656e740000000000000000000000000000000000000000000081525081526020016040518060400160405280600d81526020017f7068696c6f736f70686963616c0000000000000000000000000000000000000081525081526020016040518060400160405280600481526020017f70696e6b0000000000000000000000000000000000000000000000000000000081525081526020016040518060400160405280600a81526020017f70696f6e656572696e670000000000000000000000000000000000000000000081525081526020016040518060400160405280600681526020017f706c61636964000000000000000000000000000000000000000000000000000081525081526020016040518060400160405280600781526020017f706c617966756c0000000000000000000000000000000000000000000000000081525081526020016040518060400160405280600681526020017f706c75636b79000000000000000000000000000000000000000000000000000081525081526020016040518060400160405280600481526020017f706c756d0000000000000000000000000000000000000000000000000000000081525081526020016040518060400160405280600681526020017f706f6c697465000000000000000000000000000000000000000000000000000081525081526020016040518060400160405280600881526020017f706f73697469766500000000000000000000000000000000000000000000000081525081526020016040518060400160405280600881526020017f706f77657266756c00000000000000000000000000000000000000000000000081525081526020016040518060400160405280600981526020017f70726163746963616c000000000000000000000000000000000000000000000081525081526020016040518060400160405280600881526020017f70726563696f757300000000000000000000000000000000000000000000000081525081526020016040518060400160405280600a81526020017f70726f706974696f75730000000000000000000000000000000000000000000081525081526020016040518060400160405280600a81526020017f70726f737065726f75730000000000000000000000000000000000000000000081525081526020016040518060400160405280600481526020017f707563650000000000000000000000000000000000000000000000000000000081525081526020016040518060400160405280600681526020017f707572706c65000000000000000000000000000000000000000000000000000081525081526020016040518060400160405280600581526020017f717569657400000000000000000000000000000000000000000000000000000081525081526020016040518060400160405280600781526020017f72616469616e740000000000000000000000000000000000000000000000000081525081526020016040518060400160405280600981526020017f726173706265727279000000000000000000000000000000000000000000000081525081526020016040518060400160405280600881526020017f726174696f6e616c00000000000000000000000000000000000000000000000081525081526020016040518060400160405280600981526020017f726563657074697665000000000000000000000000000000000000000000000081525081526020016040518060400160405280600381526020017f726564000000000000000000000000000000000000000000000000000000000081525081526020016040518060400160405280600981526020017f726566726573686564000000000000000000000000000000000000000000000081525081526020016040518060400160405280600b81526020017f72656a7576656e6174656400000000000000000000000000000000000000000081525081526020016040518060400160405280600781526020017f72656c617865640000000000000000000000000000000000000000000000000081525081526020016040518060400160405280600881526020017f72656c6961626c6500000000000000000000000000000000000000000000000081525081526020016040518060400160405280600881526020017f72656c696576656400000000000000000000000000000000000000000000000081525081526020016040518060400160405280600a81526020017f72656d61726b61626c650000000000000000000000000000000000000000000081525081526020016040518060400160405280600781526020017f72656e657765640000000000000000000000000000000000000000000000000081525081526020016040518060400160405280600881526020017f726573657276656400000000000000000000000000000000000000000000000081525081526020016040518060400160405280600981526020017f726573696c69656e74000000000000000000000000000000000000000000000081525081526020016040518060400160405280600b81526020017f7265736f7572636566756c00000000000000000000000000000000000000000081525081526020016040518060400160405280600481526020017f726963680000000000000000000000000000000000000000000000000000000081525081526020016040518060400160405280600881526020017f726f6d616e74696300000000000000000000000000000000000000000000000081525081526020016040518060400160405280600481526020017f726f73650000000000000000000000000000000000000000000000000000000081525081526020016040518060400160405280600481526020017f727562790000000000000000000000000000000000000000000000000000000081525081526020016040518060400160405280600681526020017f736163726564000000000000000000000000000000000000000000000000000081525081526020016040518060400160405280600481526020017f736166650000000000000000000000000000000000000000000000000000000081525081526020016040518060400160405280600781526020017f73616e677269610000000000000000000000000000000000000000000000000081525081526020016040518060400160405280600881526020017f736170706869726500000000000000000000000000000000000000000000000081525081526020016040518060400160405280600981526020017f736174697366696564000000000000000000000000000000000000000000000081525081526020016040518060400160405280600781526020017f736361726c65740000000000000000000000000000000000000000000000000081525081526020016040518060400160405280600781526020017f736563757265640000000000000000000000000000000000000000000000000081525081526020016040518060400160405280600b81526020017f73656e736174696f6e616c00000000000000000000000000000000000000000081525081526020016040518060400160405280600881526020017f73656e7369626c6500000000000000000000000000000000000000000000000081525081526020016040518060400160405280600981526020017f73656e736974697665000000000000000000000000000000000000000000000081525081526020016040518060400160405280600681526020017f736572656e65000000000000000000000000000000000000000000000000000081525081526020016040518060400160405280600781526020017f7368696e696e670000000000000000000000000000000000000000000000000081525081526020016040518060400160405280600381526020017f736879000000000000000000000000000000000000000000000000000000000081525081526020016040518060400160405280600681526020017f73696c766572000000000000000000000000000000000000000000000000000081525081526020016040518060400160405280600781526020017f73696e636572650000000000000000000000000000000000000000000000000081525081526020016040518060400160405280600581526020017f736d61727400000000000000000000000000000000000000000000000000000081525081526020016040518060400160405280600881526020017f736f636961626c6500000000000000000000000000000000000000000000000081525081526020016040518060400160405280600b81526020017f73706563746163756c617200000000000000000000000000000000000000000081525081526020016040518060400160405280600881526020017f73706c656e64696400000000000000000000000000000000000000000000000081525081526020016040518060400160405280600781526020017f7374656c6c61720000000000000000000000000000000000000000000000000081525081526020016040518060400160405280600f81526020017f7374726169676874666f7277617264000000000000000000000000000000000081525081526020016040518060400160405280600681526020017f7374726f6e67000000000000000000000000000000000000000000000000000081525081526020016040518060400160405280600a81526020017f73747570656e646f75730000000000000000000000000000000000000000000081525081526020016040518060400160405280600a81526020017f7375636365737366756c0000000000000000000000000000000000000000000081525081526020016040518060400160405280600581526020017f737570657200000000000000000000000000000000000000000000000000000081525081526020016040518060400160405280600981526020017f7375737461696e6564000000000000000000000000000000000000000000000081525081526020016040518060400160405280600b81526020017f73796d706174686574696300000000000000000000000000000000000000000081525081526020016040518060400160405280600381526020017f74616e000000000000000000000000000000000000000000000000000000000081525081526020016040518060400160405280600581526020017f746175706500000000000000000000000000000000000000000000000000000081525081526020016040518060400160405280600481526020017f7465616c0000000000000000000000000000000000000000000000000000000081525081526020016040518060400160405280600881526020017f7468616e6b66756c00000000000000000000000000000000000000000000000081525081526020016040518060400160405280600a81526020017f74686f7567687466756c0000000000000000000000000000000000000000000081525081526020016040518060400160405280600881526020017f746872696c6c656400000000000000000000000000000000000000000000000081525081526020016040518060400160405280600881526020017f7468726976696e6700000000000000000000000000000000000000000000000081525081526020016040518060400160405280600481526020017f746964790000000000000000000000000000000000000000000000000000000081525081526020016040518060400160405280600581526020017f746f75676800000000000000000000000000000000000000000000000000000081525081526020016040518060400160405280600881526020017f7472616e7175696c00000000000000000000000000000000000000000000000081525081526020016040518060400160405280600a81526020017f747269756d7068616e740000000000000000000000000000000000000000000081525081526020016040518060400160405280600881526020017f7472757374696e6700000000000000000000000000000000000000000000000081525081526020016040518060400160405280600981526020017f74757271756f697365000000000000000000000000000000000000000000000081525081526020016040518060400160405280600881526020017f756c74696d61746500000000000000000000000000000000000000000000000081525081526020016040518060400160405280600b81526020017f756c7472616d6172696e6500000000000000000000000000000000000000000081525081526020016040518060400160405280600a81526020017f756e617373756d696e670000000000000000000000000000000000000000000081525081526020016040518060400160405280600c81526020017f756e62656c69657661626c65000000000000000000000000000000000000000081525081526020016040518060400160405280600d81526020017f756e6465727374616e64696e670000000000000000000000000000000000000081525081526020016040518060400160405280600681526020017f756e69717565000000000000000000000000000000000000000000000000000081525081526020016040518060400160405280600981526020017f756e6c696d69746564000000000000000000000000000000000000000000000081525081526020016040518060400160405280600681526020017f756e7265616c000000000000000000000000000000000000000000000000000081525081526020016040518060400160405280600881526020017f75706c696674656400000000000000000000000000000000000000000000000081525081526020016040518060400160405280600881526020017f76616c7561626c6500000000000000000000000000000000000000000000000081525081526020016040518060400160405280600981526020017f766572736174696c65000000000000000000000000000000000000000000000081525081526020016040518060400160405280600781526020017f76696272616e740000000000000000000000000000000000000000000000000081525081526020016040518060400160405280600a81526020017f766963746f72696f75730000000000000000000000000000000000000000000081525081526020016040518060400160405280600681526020017f76696f6c6574000000000000000000000000000000000000000000000000000081525081526020016040518060400160405280600881526020017f766972696469616e00000000000000000000000000000000000000000000000081525081526020016040518060400160405280600981526020017f7669766163696f7573000000000000000000000000000000000000000000000081525081526020016040518060400160405280600481526020017f7761726d0000000000000000000000000000000000000000000000000000000081525081526020016040518060400160405280600b81526020017f7761726d6865617274656400000000000000000000000000000000000000000081525081526020016040518060400160405280600781526020017f7765616c7468790000000000000000000000000000000000000000000000000081525081526020016040518060400160405280600881526020017f77656c636f6d656400000000000000000000000000000000000000000000000081525081526020016040518060400160405280600581526020017f776869746500000000000000000000000000000000000000000000000000000081525081526020016040518060400160405280600e81526020017f77686f6c65686561727465646c7900000000000000000000000000000000000081525081526020016040518060400160405280600781526020017f77696c6c696e670000000000000000000000000000000000000000000000000081525081526020016040518060400160405280600481526020017f776973650000000000000000000000000000000000000000000000000000000081525081526020016040518060400160405280600581526020017f776974747900000000000000000000000000000000000000000000000000000081525081526020016040518060400160405280600981526020017f776f6e64657266756c000000000000000000000000000000000000000000000081525081526020016040518060400160405280600881526020017f776f6e64726f757300000000000000000000000000000000000000000000000081525081526020016040518060400160405280600681526020017f776f72746879000000000000000000000000000000000000000000000000000081525081526020016040518060400160405280600681526020017f79656c6c6f77000000000000000000000000000000000000000000000000000081525081526020016040518060400160405280600881526020017f796f75746866756c00000000000000000000000000000000000000000000000081525081526020016040518060400160405280600881526020017f7a6170706965737400000000000000000000000000000000000000000000000081525081526020016040518060400160405280600581526020017f7a6170707900000000000000000000000000000000000000000000000000000081525081526020016040518060400160405280600781526020017f7a65737466756c0000000000000000000000000000000000000000000000000081525081526020016040518060400160405280600481526020017f7a696e6700000000000000000000000000000000000000000000000000000000815250815250600a9061015d620050f7929190620071ed565b506040518061112001604052806040518060400160405280600881526020017f616172647661726b00000000000000000000000000000000000000000000000081525081526020016040518060400160405280600981526020017f616c6c696761746f72000000000000000000000000000000000000000000000081525081526020016040518060400160405280600681526020017f616c70616361000000000000000000000000000000000000000000000000000081525081526020016040518060400160405280600381526020017f616e74000000000000000000000000000000000000000000000000000000000081525081526020016040518060400160405280600881526020017f616e74656c6f706500000000000000000000000000000000000000000000000081525081526020016040518060400160405280600381526020017f617065000000000000000000000000000000000000000000000000000000000081525081526020016040518060400160405280600981526020017f61726d6164696c6c6f000000000000000000000000000000000000000000000081525081526020016040518060400160405280600381526020017f617373000000000000000000000000000000000000000000000000000000000081525081526020016040518060400160405280600681526020017f6261626f6f6e000000000000000000000000000000000000000000000000000081525081526020016040518060400160405280600681526020017f626164676572000000000000000000000000000000000000000000000000000081525081526020016040518060400160405280600381526020017f626174000000000000000000000000000000000000000000000000000000000081525081526020016040518060400160405280600481526020017f626561720000000000000000000000000000000000000000000000000000000081525081526020016040518060400160405280600681526020017f626561766572000000000000000000000000000000000000000000000000000081525081526020016040518060400160405280600381526020017f626565000000000000000000000000000000000000000000000000000000000081525081526020016040518060400160405280600681526020017f626565746c65000000000000000000000000000000000000000000000000000081525081526020016040518060400160405280600781526020017f62756666616c6f0000000000000000000000000000000000000000000000000081525081526020016040518060400160405280600981526020017f627574746572666c79000000000000000000000000000000000000000000000081525081526020016040518060400160405280600581526020017f63616d656c00000000000000000000000000000000000000000000000000000081525081526020016040518060400160405280600781526020017f6361726162616f0000000000000000000000000000000000000000000000000081525081526020016040518060400160405280600781526020017f63617269626f750000000000000000000000000000000000000000000000000081525081526020016040518060400160405280600381526020017f636174000000000000000000000000000000000000000000000000000000000081525081526020016040518060400160405280600681526020017f636174746c65000000000000000000000000000000000000000000000000000081525081526020016040518060400160405280600781526020017f636865657461680000000000000000000000000000000000000000000000000081525081526020016040518060400160405280600781526020017f636869636b656e0000000000000000000000000000000000000000000000000081525081526020016040518060400160405280600a81526020017f6368696d70616e7a65650000000000000000000000000000000000000000000081525081526020016040518060400160405280600a81526020017f6368696e6368696c6c610000000000000000000000000000000000000000000081525081526020016040518060400160405280600681526020017f636963616461000000000000000000000000000000000000000000000000000081525081526020016040518060400160405280600481526020017f636c616d0000000000000000000000000000000000000000000000000000000081525081526020016040518060400160405280600981526020017f636f636b726f616368000000000000000000000000000000000000000000000081525081526020016040518060400160405280600381526020017f636f64000000000000000000000000000000000000000000000000000000000081525081526020016040518060400160405280600681526020017f636f796f7465000000000000000000000000000000000000000000000000000081525081526020016040518060400160405280600481526020017f637261620000000000000000000000000000000000000000000000000000000081525081526020016040518060400160405280600781526020017f637269636b65740000000000000000000000000000000000000000000000000081525081526020016040518060400160405280600481526020017f63726f770000000000000000000000000000000000000000000000000000000081525081526020016040518060400160405280600481526020017f646565720000000000000000000000000000000000000000000000000000000081525081526020016040518060400160405280600881526020017f64696e6f7361757200000000000000000000000000000000000000000000000081525081526020016040518060400160405280600381526020017f646f67000000000000000000000000000000000000000000000000000000000081525081526020016040518060400160405280600781526020017f646f6c7068696e0000000000000000000000000000000000000000000000000081525081526020016040518060400160405280600481526020017f6475636b0000000000000000000000000000000000000000000000000000000081525081526020016040518060400160405280600581526020017f6561676c6500000000000000000000000000000000000000000000000000000081525081526020016040518060400160405280600781526020017f65636869646e610000000000000000000000000000000000000000000000000081525081526020016040518060400160405280600381526020017f65656c000000000000000000000000000000000000000000000000000000000081525081526020016040518060400160405280600881526020017f656c657068616e7400000000000000000000000000000000000000000000000081525081526020016040518060400160405280600381526020017f656c6b000000000000000000000000000000000000000000000000000000000081525081526020016040518060400160405280600681526020017f666572726574000000000000000000000000000000000000000000000000000081525081526020016040518060400160405280600481526020017f666973680000000000000000000000000000000000000000000000000000000081525081526020016040518060400160405280600381526020017f666c79000000000000000000000000000000000000000000000000000000000081525081526020016040518060400160405280600381526020017f666f78000000000000000000000000000000000000000000000000000000000081525081526020016040518060400160405280600481526020017f66726f670000000000000000000000000000000000000000000000000000000081525081526020016040518060400160405280600681526020017f67657262696c000000000000000000000000000000000000000000000000000081525081526020016040518060400160405280600781526020017f676972616666650000000000000000000000000000000000000000000000000081525081526020016040518060400160405280600481526020017f676e61740000000000000000000000000000000000000000000000000000000081525081526020016040518060400160405280600381526020017f676e75000000000000000000000000000000000000000000000000000000000081525081526020016040518060400160405280600481526020017f676f61740000000000000000000000000000000000000000000000000000000081525081526020016040518060400160405280600881526020017f676f6c646669736800000000000000000000000000000000000000000000000081525081526020016040518060400160405280600581526020017f676f6f736500000000000000000000000000000000000000000000000000000081525081526020016040518060400160405280600781526020017f676f72696c6c610000000000000000000000000000000000000000000000000081525081526020016040518060400160405280600b81526020017f6772617373686f7070657200000000000000000000000000000000000000000081525081526020016040518060400160405280600681526020017f6775696e6561000000000000000000000000000000000000000000000000000081525081526020016040518060400160405280600781526020017f68616d737465720000000000000000000000000000000000000000000000000081525081526020016040518060400160405280600481526020017f686172650000000000000000000000000000000000000000000000000000000081525081526020016040518060400160405280600881526020017f6865646765686f6700000000000000000000000000000000000000000000000081525081526020016040518060400160405280600781526020017f68657272696e670000000000000000000000000000000000000000000000000081525081526020016040518060400160405280600c81526020017f686970706f706f74616d7573000000000000000000000000000000000000000081525081526020016040518060400160405280600681526020017f686f726e6574000000000000000000000000000000000000000000000000000081525081526020016040518060400160405280600581526020017f686f72736500000000000000000000000000000000000000000000000000000081525081526020016040518060400160405280600581526020017f686f756e6400000000000000000000000000000000000000000000000000000081525081526020016040518060400160405280600581526020017f686f75736500000000000000000000000000000000000000000000000000000081525081526020016040518060400160405280600581526020017f68756d616e00000000000000000000000000000000000000000000000000000081525081526020016040518060400160405280600581526020017f6879656e6100000000000000000000000000000000000000000000000000000081525081526020016040518060400160405280600681526020017f696d70616c61000000000000000000000000000000000000000000000000000081525081526020016040518060400160405280600681526020017f696e73656374000000000000000000000000000000000000000000000000000081525081526020016040518060400160405280600681526020017f6a61636b616c000000000000000000000000000000000000000000000000000081525081526020016040518060400160405280600981526020017f6a656c6c7966697368000000000000000000000000000000000000000000000081525081526020016040518060400160405280600881526020017f6b616e6761726f6f00000000000000000000000000000000000000000000000081525081526020016040518060400160405280600581526020017f6b6f616c6100000000000000000000000000000000000000000000000000000081525081526020016040518060400160405280600781526020017f6c656f706172640000000000000000000000000000000000000000000000000081525081526020016040518060400160405280600481526020017f6c696f6e0000000000000000000000000000000000000000000000000000000081525081526020016040518060400160405280600681526020017f6c697a617264000000000000000000000000000000000000000000000000000081525081526020016040518060400160405280600581526020017f6c6c616d6100000000000000000000000000000000000000000000000000000081525081526020016040518060400160405280600681526020017f6c6f63757374000000000000000000000000000000000000000000000000000081525081526020016040518060400160405280600581526020017f6c6f75736500000000000000000000000000000000000000000000000000000081525081526020016040518060400160405280600581526020017f6d6163617700000000000000000000000000000000000000000000000000000081525081526020016040518060400160405280600781526020017f6d616c6c6172640000000000000000000000000000000000000000000000000081525081526020016040518060400160405280600781526020017f6d616d6d6f74680000000000000000000000000000000000000000000000000081525081526020016040518060400160405280600781526020017f6d616e617465650000000000000000000000000000000000000000000000000081525081526020016040518060400160405280600681526020017f6d617274656e000000000000000000000000000000000000000000000000000081525081526020016040518060400160405280600481526020017f6d696e6b0000000000000000000000000000000000000000000000000000000081525081526020016040518060400160405280600681526020017f6d696e6e6f77000000000000000000000000000000000000000000000000000081525081526020016040518060400160405280600481526020017f6d6f6c650000000000000000000000000000000000000000000000000000000081525081526020016040518060400160405280600681526020017f6d6f6e6b6579000000000000000000000000000000000000000000000000000081525081526020016040518060400160405280600581526020017f6d6f6f736500000000000000000000000000000000000000000000000000000081525081526020016040518060400160405280600881526020017f6d6f73717569746f00000000000000000000000000000000000000000000000081525081526020016040518060400160405280600581526020017f6d6f75736500000000000000000000000000000000000000000000000000000081525081526020016040518060400160405280600481526020017f6d756c650000000000000000000000000000000000000000000000000000000081525081526020016040518060400160405280600781526020017f6d75736b7261740000000000000000000000000000000000000000000000000081525081526020016040518060400160405280600581526020017f6f7474657200000000000000000000000000000000000000000000000000000081525081526020016040518060400160405280600281526020017f6f7800000000000000000000000000000000000000000000000000000000000081525081526020016040518060400160405280600681526020017f6f7973746572000000000000000000000000000000000000000000000000000081525081526020016040518060400160405280600581526020017f70616e646100000000000000000000000000000000000000000000000000000081525081526020016040518060400160405280600381526020017f706967000000000000000000000000000000000000000000000000000000000081525081526020016040518060400160405280600881526020017f706c61747970757300000000000000000000000000000000000000000000000081525081526020016040518060400160405280600981526020017f706f72637570696e65000000000000000000000000000000000000000000000081525081526020016040518060400160405280600781526020017f707261697269650000000000000000000000000000000000000000000000000081525081526020016040518060400160405280600381526020017f707567000000000000000000000000000000000000000000000000000000000081525081526020016040518060400160405280600681526020017f726162626974000000000000000000000000000000000000000000000000000081525081526020016040518060400160405280600781526020017f726163636f6f6e0000000000000000000000000000000000000000000000000081525081526020016040518060400160405280600881526020017f7265696e6465657200000000000000000000000000000000000000000000000081525081526020016040518060400160405280600a81526020017f7268696e6f6365726f730000000000000000000000000000000000000000000081525081526020016040518060400160405280600681526020017f73616c6d6f6e000000000000000000000000000000000000000000000000000081525081526020016040518060400160405280600781526020017f73617264696e650000000000000000000000000000000000000000000000000081525081526020016040518060400160405280600881526020017f73636f7270696f6e00000000000000000000000000000000000000000000000081525081526020016040518060400160405280600481526020017f7365616c0000000000000000000000000000000000000000000000000000000081525081526020016040518060400160405280600681526020017f73657276616c000000000000000000000000000000000000000000000000000081525081526020016040518060400160405280600581526020017f736861726b00000000000000000000000000000000000000000000000000000081525081526020016040518060400160405280600581526020017f736865657000000000000000000000000000000000000000000000000000000081525081526020016040518060400160405280600581526020017f736b756e6b00000000000000000000000000000000000000000000000000000081525081526020016040518060400160405280600581526020017f736e61696c00000000000000000000000000000000000000000000000000000081525081526020016040518060400160405280600581526020017f736e616b6500000000000000000000000000000000000000000000000000000081525081526020016040518060400160405280600681526020017f737069646572000000000000000000000000000000000000000000000000000081525081526020016040518060400160405280600881526020017f737175697272656c00000000000000000000000000000000000000000000000081525081526020016040518060400160405280600481526020017f7377616e0000000000000000000000000000000000000000000000000000000081525081526020016040518060400160405280600781526020017f7465726d6974650000000000000000000000000000000000000000000000000081525081526020016040518060400160405280600581526020017f746967657200000000000000000000000000000000000000000000000000000081525081526020016040518060400160405280600581526020017f74726f757400000000000000000000000000000000000000000000000000000081525081526020016040518060400160405280600681526020017f747572746c65000000000000000000000000000000000000000000000000000081525081526020016040518060400160405280600681526020017f77616c727573000000000000000000000000000000000000000000000000000081525081526020016040518060400160405280600481526020017f776173700000000000000000000000000000000000000000000000000000000081525081526020016040518060400160405280600681526020017f77656173656c000000000000000000000000000000000000000000000000000081525081526020016040518060400160405280600581526020017f7768616c6500000000000000000000000000000000000000000000000000000081525081526020016040518060400160405280600481526020017f776f6c660000000000000000000000000000000000000000000000000000000081525081526020016040518060400160405280600681526020017f776f6d626174000000000000000000000000000000000000000000000000000081525081526020016040518060400160405280600981526020017f776f6f64636875636b000000000000000000000000000000000000000000000081525081526020016040518060400160405280600481526020017f776f726d0000000000000000000000000000000000000000000000000000000081525081526020016040518060400160405280600381526020017f79616b000000000000000000000000000000000000000000000000000000000081525081526020016040518060400160405280600c81526020017f79656c6c6f776a61636b6574000000000000000000000000000000000000000081525081526020016040518060400160405280600581526020017f7a65627261000000000000000000000000000000000000000000000000000000815250815250600b906089620070a792919062007254565b50348015620070b557600080fd5b506040518060400160405280600e81526020017f4275696c6453706163654e616d650000000000000000000000000000000000008152506040518060400160405280600381526020017f42534e000000000000000000000000000000000000000000000000000000000081525081600090805190602001906200713a9291906200715c565b508060019080519060200190620071539291906200715c565b505050620073ad565b8280546200716a9062007348565b90600052602060002090601f0160209004810192826200718e5760008555620071da565b82601f10620071a957805160ff1916838001178555620071da565b82800160010185558215620071da579182015b82811115620071d9578251825591602001919060010190620071bc565b5b509050620071e99190620072bb565b5090565b82805482825590600052602060002090810192821562007241579160200282015b82811115620072405782518290805190602001906200722f9291906200715c565b50916020019190600101906200720e565b5b509050620072509190620072da565b5090565b828054828255906000526020600020908101928215620072a8579160200282015b82811115620072a7578251829080519060200190620072969291906200715c565b509160200191906001019062007275565b5b509050620072b79190620072da565b5090565b5b80821115620072d6576000816000905550600101620072bc565b5090565b5b80821115620072fe5760008181620072f4919062007302565b50600101620072db565b5090565b508054620073109062007348565b6000825580601f1062007324575062007345565b601f016020900490600052602060002090810190620073449190620072bb565b5b50565b600060028204905060018216806200736157607f821691505b602082108114156200737857620073776200737e565b5b50919050565b7f4e487b7100000000000000000000000000000000000000000000000000000000600052602260045260246000fd5b613bd380620073bd6000396000f3fe608060405234801561001057600080fd5b506004361061010b5760003560e01c806370a08231116100a2578063b88d4fde11610071578063b88d4fde146102dc578063c87b56dd146102f8578063de9d132f14610328578063e939567914610332578063e985e9c5146103625761010b565b806370a082311461024257806395d89b4114610272578063a22cb46514610290578063a7bf7124146102ac5761010b565b8063095ea7b3116100de578063095ea7b3146101be57806323b872dd146101da57806342842e0e146101f65780636352211e146102125761010b565b806301ffc9a71461011057806306fdde031461014057806307f777731461015e578063081812fc1461018e575b600080fd5b61012a60048036038101906101259190612826565b610392565b6040516101379190613408565b60405180910390f35b610148610474565b6040516101559190613423565b60405180910390f35b61017860048036038101906101739190612878565b610506565b6040516101859190613423565b60405180910390f35b6101a860048036038101906101a39190612878565b610624565b6040516101b591906133a1565b60405180910390f35b6101d860048036038101906101d391906127ea565b6106a9565b005b6101f460048036038101906101ef91906126e4565b6107c1565b005b610210600480360381019061020b91906126e4565b610821565b005b61022c60048036038101906102279190612878565b610841565b60405161023991906133a1565b60405180910390f35b61025c6004803603810190610257919061267f565b6108f3565b6040516102699190613683565b60405180910390f35b61027a6109ab565b6040516102879190613423565b60405180910390f35b6102aa60048036038101906102a591906127ae565b610a3d565b005b6102c660048036038101906102c19190612878565b610bbe565b6040516102d39190613423565b60405180910390f35b6102f660048036038101906102f19190612733565b610cdc565b005b610312600480360381019061030d9190612878565b610d3e565b60405161031f9190613423565b60405180910390f35b610330610e90565b005b61034c60048036038101906103479190612878565b611051565b6040516103599190613423565b60405180910390f35b61037c600480360381019061037791906126a8565b6112f0565b6040516103899190613408565b60405180910390f35b60007f80ac58cd000000000000000000000000000000000000000000000000000000007bffffffffffffffffffffffffffffffffffffffffffffffffffffffff1916827bffffffffffffffffffffffffffffffffffffffffffffffffffffffff1916148061045d57507f5b5e139f000000000000000000000000000000000000000000000000000000007bffffffffffffffffffffffffffffffffffffffffffffffffffffffff1916827bffffffffffffffffffffffffffffffffffffffffffffffffffffffff1916145b8061046d575061046c82611384565b5b9050919050565b60606000805461048390613963565b80601f01602080910402602001604051908101604052809291908181526020018280546104af90613963565b80156104fc5780601f106104d1576101008083540402835291602001916104fc565b820191906000526020600020905b8154815290600101906020018083116104df57829003601f168201915b5050505050905090565b6060600061053a610516846113ee565b60405160200161052691906132d4565b60405160208183030381529060405261159b565b9050600b805490508161054d91906139de565b9050600b8181548110610589577f4e487b7100000000000000000000000000000000000000000000000000000000600052603260045260246000fd5b90600052602060002001805461059e90613963565b80601f01602080910402602001604051908101604052809291908181526020018280546105ca90613963565b80156106175780601f106105ec57610100808354040283529160200191610617565b820191906000526020600020905b8154815290600101906020018083116105fa57829003601f168201915b5050505050915050919050565b600061062f826115ce565b61066e576040517f08c379a0000000000000000000000000000000000000000000000000000000008152600401610665906135e3565b60405180910390fd5b6004600083815260200190815260200160002060009054906101000a900473ffffffffffffffffffffffffffffffffffffffff169050919050565b60006106b482610841565b90508073ffffffffffffffffffffffffffffffffffffffff168373ffffffffffffffffffffffffffffffffffffffff161415610725576040517f08c379a000000000000000000000000000000000000000000000000000000000815260040161071c90613643565b60405180910390fd5b8073ffffffffffffffffffffffffffffffffffffffff1661074461163a565b73ffffffffffffffffffffffffffffffffffffffff16148061077357506107728161076d61163a565b6112f0565b5b6107b2576040517f08c379a00000000000000000000000000000000000000000000000000000000081526004016107a990613523565b60405180910390fd5b6107bc8383611642565b505050565b6107d26107cc61163a565b826116fb565b610811576040517f08c379a000000000000000000000000000000000000000000000000000000000815260040161080890613663565b60405180910390fd5b61081c8383836117d9565b505050565b61083c83838360405180602001604052806000815250610cdc565b505050565b6000806002600084815260200190815260200160002060009054906101000a900473ffffffffffffffffffffffffffffffffffffffff169050600073ffffffffffffffffffffffffffffffffffffffff168173ffffffffffffffffffffffffffffffffffffffff1614156108ea576040517f08c379a00000000000000000000000000000000000000000000000000000000081526004016108e190613563565b60405180910390fd5b80915050919050565b60008073ffffffffffffffffffffffffffffffffffffffff168273ffffffffffffffffffffffffffffffffffffffff161415610964576040517f08c379a000000000000000000000000000000000000000000000000000000000815260040161095b90613543565b60405180910390fd5b600360008373ffffffffffffffffffffffffffffffffffffffff1673ffffffffffffffffffffffffffffffffffffffff168152602001908152602001600020549050919050565b6060600180546109ba90613963565b80601f01602080910402602001604051908101604052809291908181526020018280546109e690613963565b8015610a335780601f10610a0857610100808354040283529160200191610a33565b820191906000526020600020905b815481529060010190602001808311610a1657829003601f168201915b5050505050905090565b610a4561163a565b73ffffffffffffffffffffffffffffffffffffffff168273ffffffffffffffffffffffffffffffffffffffff161415610ab3576040517f08c379a0000000000000000000000000000000000000000000000000000000008152600401610aaa906134e3565b60405180910390fd5b8060056000610ac061163a565b73ffffffffffffffffffffffffffffffffffffffff1673ffffffffffffffffffffffffffffffffffffffff16815260200190815260200160002060008473ffffffffffffffffffffffffffffffffffffffff1673ffffffffffffffffffffffffffffffffffffffff16815260200190815260200160002060006101000a81548160ff0219169083151502179055508173ffffffffffffffffffffffffffffffffffffffff16610b6d61163a565b73ffffffffffffffffffffffffffffffffffffffff167f17307eab39ab6107e8899845ad3d59bd9653f200f220920489ca2b5937696c3183604051610bb29190613408565b60405180910390a35050565b60606000610bf2610bce846113ee565b604051602001610bde91906132f6565b60405160208183030381529060405261159b565b9050600a8054905081610c0591906139de565b9050600a8181548110610c41577f4e487b7100000000000000000000000000000000000000000000000000000000600052603260045260246000fd5b906000526020600020018054610c5690613963565b80601f0160208091040260200160405190810160405280929190818152602001828054610c8290613963565b8015610ccf5780601f10610ca457610100808354040283529160200191610ccf565b820191906000526020600020905b815481529060010190602001808311610cb257829003601f168201915b5050505050915050919050565b610ced610ce761163a565b836116fb565b610d2c576040517f08c379a0000000000000000000000000000000000000000000000000000000008152600401610d2390613663565b60405180910390fd5b610d3884848484611a35565b50505050565b6060610d49826115ce565b610d88576040517f08c379a0000000000000000000000000000000000000000000000000000000008152600401610d7f906135c3565b60405180910390fd5b6000600660008481526020019081526020016000208054610da890613963565b80601f0160208091040260200160405190810160405280929190818152602001828054610dd490613963565b8015610e215780601f10610df657610100808354040283529160200191610e21565b820191906000526020600020905b815481529060010190602001808311610e0457829003601f168201915b505050505090506000610e32611a91565b9050600081511415610e48578192505050610e8b565b600082511115610e7d578082604051602001610e65929190613267565b60405160208183030381529060405292505050610e8b565b610e8684611aa8565b925050505b919050565b6000610e9c6007611b4f565b90506000610eb1610eac83610bbe565b611b5d565b90506000610ec6610ec184610506565b611b5d565b905060008282604051602001610edd929190613267565b60405160208183030381529060405290506000610ef985611c93565b90506000600882600985604051602001610f16949392919061328b565b60405160208183030381529060405290506000610f5b84610f3684611ce6565b604051602001610f47929190613318565b604051602081830303815290604052611ce6565b9050600081604051602001610f70919061335d565b6040516020818303038152906040529050610fbf6040518060400160405280601581526020017f0a2d2d2d2d2d2d2d2d2d2d2d2d2d2d2d2d2d2d2d2d0000000000000000000000815250611ea4565b610fc881611ea4565b6110066040518060400160405280601581526020017f2d2d2d2d2d2d2d2d2d2d2d2d2d2d2d2d2d2d2d2d0a0000000000000000000000815250611ea4565b6110103389611f3d565b61101a8882611f5b565b6110246007611fcf565b611047604051806060016040528060258152602001613b39602591398933611fe5565b5050505050505050565b606060006064905060008167ffffffffffffffff81111561109b577f4e487b7100000000000000000000000000000000000000000000000000000000600052604160045260246000fd5b6040519080825280601f01601f1916602001820160405280156110cd5781602001600182028036833780820191505090505b50905060005b60008514611185576000600a866110ea91906139de565b9050600a866110f991906137ad565b95508060306111089190613757565b60f81b83838061111790613995565b945081518110611150577f4e487b7100000000000000000000000000000000000000000000000000000000600052603260045260246000fd5b60200101907effffffffffffffffffffffffffffffffffffffffffffffffffffffffffffff1916908160001a905350506110d3565b60008167ffffffffffffffff8111156111c7577f4e487b7100000000000000000000000000000000000000000000000000000000600052604160045260246000fd5b6040519080825280601f01601f1916602001820160405280156111f95781602001600182028036833780820191505090505b50905060005b828110156112dd5783600182856112169190613838565b6112209190613838565b81518110611257577f4e487b7100000000000000000000000000000000000000000000000000000000600052603260045260246000fd5b602001015160f81c60f81b82828151811061129b577f4e487b7100000000000000000000000000000000000000000000000000000000600052603260045260246000fd5b60200101907effffffffffffffffffffffffffffffffffffffffffffffffffffffffffffff1916908160001a90535080806112d590613995565b9150506111ff565b5060008190508095505050505050919050565b6000600560008473ffffffffffffffffffffffffffffffffffffffff1673ffffffffffffffffffffffffffffffffffffffff16815260200190815260200160002060008373ffffffffffffffffffffffffffffffffffffffff1673ffffffffffffffffffffffffffffffffffffffff16815260200190815260200160002060009054906101000a900460ff16905092915050565b60007f01ffc9a7000000000000000000000000000000000000000000000000000000007bffffffffffffffffffffffffffffffffffffffffffffffffffffffff1916827bffffffffffffffffffffffffffffffffffffffffffffffffffffffff1916149050919050565b60606000821415611436576040518060400160405280600181526020017f30000000000000000000000000000000000000000000000000000000000000008152509050611596565b600082905060005b6000821461146857808061145190613995565b915050600a8261146191906137ad565b915061143e565b60008167ffffffffffffffff8111156114aa577f4e487b7100000000000000000000000000000000000000000000000000000000600052604160045260246000fd5b6040519080825280601f01601f1916602001820160405280156114dc5781602001600182028036833780820191505090505b5090505b6000851461158f576001826114f59190613838565b9150600a8561150491906139de565b60306115109190613757565b60f81b81838151811061154c577f4e487b7100000000000000000000000000000000000000000000000000000000600052603260045260246000fd5b60200101907effffffffffffffffffffffffffffffffffffffffffffffffffffffffffffff1916908160001a905350600a8561158891906137ad565b94506114e0565b8093505050505b919050565b6000816040516020016115ae9190613250565b6040516020818303038152906040528051906020012060001c9050919050565b60008073ffffffffffffffffffffffffffffffffffffffff166002600084815260200190815260200160002060009054906101000a900473ffffffffffffffffffffffffffffffffffffffff1673ffffffffffffffffffffffffffffffffffffffff1614159050919050565b600033905090565b816004600083815260200190815260200160002060006101000a81548173ffffffffffffffffffffffffffffffffffffffff021916908373ffffffffffffffffffffffffffffffffffffffff160217905550808273ffffffffffffffffffffffffffffffffffffffff166116b583610841565b73ffffffffffffffffffffffffffffffffffffffff167f8c5be1e5ebec7d5bd14f71427d1e84f3dd0314c0f7b2291e5b200ac8c7c3b92560405160405180910390a45050565b6000611706826115ce565b611745576040517f08c379a000000000000000000000000000000000000000000000000000000000815260040161173c90613503565b60405180910390fd5b600061175083610841565b90508073ffffffffffffffffffffffffffffffffffffffff168473ffffffffffffffffffffffffffffffffffffffff1614806117bf57508373ffffffffffffffffffffffffffffffffffffffff166117a784610624565b73ffffffffffffffffffffffffffffffffffffffff16145b806117d057506117cf81856112f0565b5b91505092915050565b8273ffffffffffffffffffffffffffffffffffffffff166117f982610841565b73ffffffffffffffffffffffffffffffffffffffff161461184f576040517f08c379a000000000000000000000000000000000000000000000000000000000815260040161184690613603565b60405180910390fd5b600073ffffffffffffffffffffffffffffffffffffffff168273ffffffffffffffffffffffffffffffffffffffff1614156118bf576040517f08c379a00000000000000000000000000000000000000000000000000000000081526004016118b6906134c3565b60405180910390fd5b6118ca838383612084565b6118d5600082611642565b6001600360008573ffffffffffffffffffffffffffffffffffffffff1673ffffffffffffffffffffffffffffffffffffffff16815260200190815260200160002060008282546119259190613838565b925050819055506001600360008473ffffffffffffffffffffffffffffffffffffffff1673ffffffffffffffffffffffffffffffffffffffff168152602001908152602001600020600082825461197c9190613757565b92505081905550816002600083815260200190815260200160002060006101000a81548173ffffffffffffffffffffffffffffffffffffffff021916908373ffffffffffffffffffffffffffffffffffffffff160217905550808273ffffffffffffffffffffffffffffffffffffffff168473ffffffffffffffffffffffffffffffffffffffff167fddf252ad1be2c89b69c2b068fc378daa952ba7f163c4a11628f55a4df523b3ef60405160405180910390a4505050565b611a408484846117d9565b611a4c84848484612089565b611a8b576040517f08c379a0000000000000000000000000000000000000000000000000000000008152600401611a8290613483565b60405180910390fd5b50505050565b606060405180602001604052806000815250905090565b6060611ab3826115ce565b611af2576040517f08c379a0000000000000000000000000000000000000000000000000000000008152600401611ae990613623565b60405180910390fd5b6000611afc611a91565b90506000815111611b1c5760405180602001604052806000815250611b47565b80611b26846113ee565b604051602001611b37929190613267565b6040516020818303038152906040525b915050919050565b600081600001549050919050565b6060600082905060005b8151811015611c895760008114611bc157818181518110611bb1577f4e487b7100000000000000000000000000000000000000000000000000000000600052603260045260246000fd5b602001015160f81c60f81b611c0e565b611c0d828281518110611bfd577f4e487b7100000000000000000000000000000000000000000000000000000000600052603260045260246000fd5b602001015160f81c60f81b612220565b5b828281518110611c47577f4e487b7100000000000000000000000000000000000000000000000000000000600052603260045260246000fd5b60200101907effffffffffffffffffffffffffffffffffffffffffffffffffffffffffffff1916908160001a9053508080611c8190613995565b915050611b67565b5080915050919050565b60606000611cc7611ca3846113ee565b604051602001611cb3919061337f565b60405160208183030381529060405261159b565b9050611cde607882611cd991906139de565b611051565b915050919050565b60606000825190506000811415611d0f5760405180602001604052806000815250915050611e9f565b60006003600283611d209190613757565b611d2a91906137ad565b6004611d3691906137de565b90506000602082611d479190613757565b67ffffffffffffffff811115611d86577f4e487b7100000000000000000000000000000000000000000000000000000000600052604160045260246000fd5b6040519080825280601f01601f191660200182016040528015611db85781602001600182028036833780820191505090505b5090506000604051806060016040528060408152602001613b5e604091399050600181016020830160005b86811015611e5c5760038101905062ffffff818a015116603f8160121c168401518060081b905060ff603f83600c1c1686015116810190508060081b905060ff603f8360061c1686015116810190508060081b905060ff603f831686015116810190508060e01b90508084526004840193505050611de3565b506003860660018114611e765760028114611e8657611e91565b613d3d60f01b6002830352611e91565b603d60f81b60018303525b508484525050819450505050505b919050565b611f3a81604051602401611eb89190613423565b6040516020818303038152906040527f41304fac000000000000000000000000000000000000000000000000000000007bffffffffffffffffffffffffffffffffffffffffffffffffffffffff19166020820180517bffffffffffffffffffffffffffffffffffffffffffffffffffffffff83818316178352505050506122a6565b50565b611f578282604051806020016040528060008152506122cf565b5050565b611f64826115ce565b611fa3576040517f08c379a0000000000000000000000000000000000000000000000000000000008152600401611f9a90613583565b60405180910390fd5b80600660008481526020019081526020016000209080519060200190611fca92919061250b565b505050565b6001816000016000828254019250508190555050565b61207f838383604051602401611ffd93929190613445565b6040516020818303038152906040527fe3849f79000000000000000000000000000000000000000000000000000000007bffffffffffffffffffffffffffffffffffffffffffffffffffffffff19166020820180517bffffffffffffffffffffffffffffffffffffffffffffffffffffffff83818316178352505050506122a6565b505050565b505050565b60006120aa8473ffffffffffffffffffffffffffffffffffffffff1661232a565b15612213578373ffffffffffffffffffffffffffffffffffffffff1663150b7a026120d361163a565b8786866040518563ffffffff1660e01b81526004016120f594939291906133bc565b602060405180830381600087803b15801561210f57600080fd5b505af192505050801561214057506040513d601f19601f8201168201806040525081019061213d919061284f565b60015b6121c3573d8060008114612170576040519150601f19603f3d011682016040523d82523d6000602084013e612175565b606091505b506000815114156121bb576040517f08c379a00000000000000000000000000000000000000000000000000000000081526004016121b290613483565b60405180910390fd5b805181602001fd5b63150b7a0260e01b7bffffffffffffffffffffffffffffffffffffffffffffffffffffffff1916817bffffffffffffffffffffffffffffffffffffffffffffffffffffffff191614915050612218565b600190505b949350505050565b6000606160f81b827effffffffffffffffffffffffffffffffffffffffffffffffffffffffffffff19161015801561227e5750607a60f81b827effffffffffffffffffffffffffffffffffffffffffffffffffffffffffffff191611155b1561229d5760208260f81c612293919061386c565b60f81b90506122a1565b8190505b919050565b60008151905060006a636f6e736f6c652e6c6f679050602083016000808483855afa5050505050565b6122d9838361233d565b6122e66000848484612089565b612325576040517f08c379a000000000000000000000000000000000000000000000000000000000815260040161231c90613483565b60405180910390fd5b505050565b600080823b905060008111915050919050565b600073ffffffffffffffffffffffffffffffffffffffff168273ffffffffffffffffffffffffffffffffffffffff1614156123ad576040517f08c379a00000000000000000000000000000000000000000000000000000000081526004016123a4906135a3565b60405180910390fd5b6123b6816115ce565b156123f6576040517f08c379a00000000000000000000000000000000000000000000000000000000081526004016123ed906134a3565b60405180910390fd5b61240260008383612084565b6001600360008473ffffffffffffffffffffffffffffffffffffffff1673ffffffffffffffffffffffffffffffffffffffff16815260200190815260200160002060008282546124529190613757565b92505081905550816002600083815260200190815260200160002060006101000a81548173ffffffffffffffffffffffffffffffffffffffff021916908373ffffffffffffffffffffffffffffffffffffffff160217905550808273ffffffffffffffffffffffffffffffffffffffff16600073ffffffffffffffffffffffffffffffffffffffff167fddf252ad1be2c89b69c2b068fc378daa952ba7f163c4a11628f55a4df523b3ef60405160405180910390a45050565b82805461251790613963565b90600052602060002090601f0160209004810192826125395760008555612580565b82601f1061255257805160ff1916838001178555612580565b82800160010185558215612580579182015b8281111561257f578251825591602001919060010190612564565b5b50905061258d9190612591565b5090565b5b808211156125aa576000816000905550600101612592565b5090565b60006125c16125bc846136cf565b61369e565b9050828152602081018484840111156125d957600080fd5b6125e4848285613921565b509392505050565b6000813590506125fb81613adc565b92915050565b60008135905061261081613af3565b92915050565b60008135905061262581613b0a565b92915050565b60008151905061263a81613b0a565b92915050565b600082601f83011261265157600080fd5b81356126618482602086016125ae565b91505092915050565b60008135905061267981613b21565b92915050565b60006020828403121561269157600080fd5b600061269f848285016125ec565b91505092915050565b600080604083850312156126bb57600080fd5b60006126c9858286016125ec565b92505060206126da858286016125ec565b9150509250929050565b6000806000606084860312156126f957600080fd5b6000612707868287016125ec565b9350506020612718868287016125ec565b92505060406127298682870161266a565b9150509250925092565b6000806000806080858703121561274957600080fd5b6000612757878288016125ec565b9450506020612768878288016125ec565b93505060406127798782880161266a565b925050606085013567ffffffffffffffff81111561279657600080fd5b6127a287828801612640565b91505092959194509250565b600080604083850312156127c157600080fd5b60006127cf858286016125ec565b92505060206127e085828601612601565b9150509250929050565b600080604083850312156127fd57600080fd5b600061280b858286016125ec565b925050602061281c8582860161266a565b9150509250929050565b60006020828403121561283857600080fd5b600061284684828501612616565b91505092915050565b60006020828403121561286157600080fd5b600061286f8482850161262b565b91505092915050565b60006020828403121561288a57600080fd5b60006128988482850161266a565b91505092915050565b6128aa816138a0565b82525050565b6128b9816138b2565b82525050565b60006128ca82613714565b6128d4818561372a565b93506128e4818560208601613930565b6128ed81613acb565b840191505092915050565b60006129038261371f565b61290d818561373b565b935061291d818560208601613930565b61292681613acb565b840191505092915050565b600061293c8261371f565b612946818561374c565b9350612956818560208601613930565b80840191505092915050565b6000815461296f81613963565b612979818661374c565b9450600182166000811461299457600181146129a5576129d8565b60ff198316865281860193506129d8565b6129ae856136ff565b60005b838110156129d0578154818901526001820191506020810190506129b1565b838801955050505b50505092915050565b60006129ee60328361373b565b91507f4552433732313a207472616e7366657220746f206e6f6e20455243373231526560008301527f63656976657220696d706c656d656e74657200000000000000000000000000006020830152604082019050919050565b6000612a5460048361374c565b91507f4e4f554e000000000000000000000000000000000000000000000000000000006000830152600482019050919050565b6000612a94601c8361373b565b91507f4552433732313a20746f6b656e20616c7265616479206d696e746564000000006000830152602082019050919050565b6000612ad460248361373b565b91507f4552433732313a207472616e7366657220746f20746865207a65726f2061646460008301527f72657373000000000000000000000000000000000000000000000000000000006020830152604082019050919050565b6000612b3a60198361373b565b91507f4552433732313a20617070726f766520746f2063616c6c6572000000000000006000830152602082019050919050565b6000612b7a602c8361373b565b91507f4552433732313a206f70657261746f7220717565727920666f72206e6f6e657860008301527f697374656e7420746f6b656e00000000000000000000000000000000000000006020830152604082019050919050565b6000612be0600d8361374c565b91507f3c2f746578743e3c2f7376673e000000000000000000000000000000000000006000830152600d82019050919050565b6000612c2060098361374c565b91507f41444a45435449564500000000000000000000000000000000000000000000006000830152600982019050919050565b6000612c6060388361373b565b91507f4552433732313a20617070726f76652063616c6c6572206973206e6f74206f7760008301527f6e6572206e6f7220617070726f76656420666f7220616c6c00000000000000006020830152604082019050919050565b6000612cc6602a8361373b565b91507f4552433732313a2062616c616e636520717565727920666f7220746865207a6560008301527f726f2061646472657373000000000000000000000000000000000000000000006020830152604082019050919050565b6000612d2c60298361373b565b91507f4552433732313a206f776e657220717565727920666f72206e6f6e657869737460008301527f656e7420746f6b656e00000000000000000000000000000000000000000000006020830152604082019050919050565b6000612d92602e8361373b565b91507f45524337323155524953746f726167653a2055524920736574206f66206e6f6e60008301527f6578697374656e7420746f6b656e0000000000000000000000000000000000006020830152604082019050919050565b6000612df860748361374c565b91507f222c20226465736372697074696f6e223a20224120686967686c79206163636c60008301527f61696d656420636f6c6c656374696f6e206f66204275696c645370616365205060208301527f726f6a656374206e616d65732e222c2022696d616765223a2022646174613a6960408301527f6d6167652f7376672b786d6c3b6261736536342c0000000000000000000000006060830152607482019050919050565b6000612eaa60028361374c565b91507f227d0000000000000000000000000000000000000000000000000000000000006000830152600282019050919050565b6000612eea60208361373b565b91507f4552433732313a206d696e7420746f20746865207a65726f20616464726573736000830152602082019050919050565b6000612f2a60318361373b565b91507f45524337323155524953746f726167653a2055524920717565727920666f722060008301527f6e6f6e6578697374656e7420746f6b656e0000000000000000000000000000006020830152604082019050919050565b6000612f90602c8361373b565b91507f4552433732313a20617070726f76656420717565727920666f72206e6f6e657860008301527f697374656e7420746f6b656e00000000000000000000000000000000000000006020830152604082019050919050565b6000612ff660298361373b565b91507f4552433732313a207472616e73666572206f6620746f6b656e2074686174206960008301527f73206e6f74206f776e00000000000000000000000000000000000000000000006020830152604082019050919050565b600061305c602f8361373b565b91507f4552433732314d657461646174613a2055524920717565727920666f72206e6f60008301527f6e6578697374656e7420746f6b656e00000000000000000000000000000000006020830152604082019050919050565b60006130c2600a8361374c565b91507f7b226e616d65223a2022000000000000000000000000000000000000000000006000830152600a82019050919050565b600061310260218361373b565b91507f4552433732313a20617070726f76616c20746f2063757272656e74206f776e6560008301527f72000000000000000000000000000000000000000000000000000000000000006020830152604082019050919050565b6000613168601d8361374c565b91507f646174613a6170706c69636174696f6e2f6a736f6e3b6261736536342c0000006000830152601d82019050919050565b60006131a860318361373b565b91507f4552433732313a207472616e736665722063616c6c6572206973206e6f74206f60008301527f776e6572206e6f7220617070726f7665640000000000000000000000000000006020830152604082019050919050565b600061320e60058361374c565b91507f414e474c450000000000000000000000000000000000000000000000000000006000830152600582019050919050565b61324a8161390a565b82525050565b600061325c8284612931565b915081905092915050565b60006132738285612931565b915061327f8284612931565b91508190509392505050565b60006132978287612962565b91506132a38286612931565b91506132af8285612962565b91506132bb8284612931565b91506132c682612bd3565b915081905095945050505050565b60006132df82612a47565b91506132eb8284612931565b915081905092915050565b600061330182612c13565b915061330d8284612931565b915081905092915050565b6000613323826130b5565b915061332f8285612931565b915061333a82612deb565b91506133468284612931565b915061335182612e9d565b91508190509392505050565b60006133688261315b565b91506133748284612931565b915081905092915050565b600061338a82613201565b91506133968284612931565b915081905092915050565b60006020820190506133b660008301846128a1565b92915050565b60006080820190506133d160008301876128a1565b6133de60208301866128a1565b6133eb6040830185613241565b81810360608301526133fd81846128bf565b905095945050505050565b600060208201905061341d60008301846128b0565b92915050565b6000602082019050818103600083015261343d81846128f8565b905092915050565b6000606082019050818103600083015261345f81866128f8565b905061346e6020830185613241565b61347b60408301846128a1565b949350505050565b6000602082019050818103600083015261349c816129e1565b9050919050565b600060208201905081810360008301526134bc81612a87565b9050919050565b600060208201905081810360008301526134dc81612ac7565b9050919050565b600060208201905081810360008301526134fc81612b2d565b9050919050565b6000602082019050818103600083015261351c81612b6d565b9050919050565b6000602082019050818103600083015261353c81612c53565b9050919050565b6000602082019050818103600083015261355c81612cb9565b9050919050565b6000602082019050818103600083015261357c81612d1f565b9050919050565b6000602082019050818103600083015261359c81612d85565b9050919050565b600060208201905081810360008301526135bc81612edd565b9050919050565b600060208201905081810360008301526135dc81612f1d565b9050919050565b600060208201905081810360008301526135fc81612f83565b9050919050565b6000602082019050818103600083015261361c81612fe9565b9050919050565b6000602082019050818103600083015261363c8161304f565b9050919050565b6000602082019050818103600083015261365c816130f5565b9050919050565b6000602082019050818103600083015261367c8161319b565b9050919050565b60006020820190506136986000830184613241565b92915050565b6000604051905081810181811067ffffffffffffffff821117156136c5576136c4613a9c565b5b8060405250919050565b600067ffffffffffffffff8211156136ea576136e9613a9c565b5b601f19601f8301169050602081019050919050565b60008190508160005260206000209050919050565b600081519050919050565b600081519050919050565b600082825260208201905092915050565b600082825260208201905092915050565b600081905092915050565b60006137628261390a565b915061376d8361390a565b9250827fffffffffffffffffffffffffffffffffffffffffffffffffffffffffffffffff038211156137a2576137a1613a0f565b5b828201905092915050565b60006137b88261390a565b91506137c38361390a565b9250826137d3576137d2613a3e565b5b828204905092915050565b60006137e98261390a565b91506137f48361390a565b9250817fffffffffffffffffffffffffffffffffffffffffffffffffffffffffffffffff048311821515161561382d5761382c613a0f565b5b828202905092915050565b60006138438261390a565b915061384e8361390a565b92508282101561386157613860613a0f565b5b828203905092915050565b600061387782613914565b915061388283613914565b92508282101561389557613894613a0f565b5b828203905092915050565b60006138ab826138ea565b9050919050565b60008115159050919050565b60007fffffffff0000000000000000000000000000000000000000000000000000000082169050919050565b600073ffffffffffffffffffffffffffffffffffffffff82169050919050565b6000819050919050565b600060ff82169050919050565b82818337600083830152505050565b60005b8381101561394e578082015181840152602081019050613933565b8381111561395d576000848401525b50505050565b6000600282049050600182168061397b57607f821691505b6020821081141561398f5761398e613a6d565b5b50919050565b60006139a08261390a565b91507fffffffffffffffffffffffffffffffffffffffffffffffffffffffffffffffff8214156139d3576139d2613a0f565b5b600182019050919050565b60006139e98261390a565b91506139f48361390a565b925082613a0457613a03613a3e565b5b828206905092915050565b7f4e487b7100000000000000000000000000000000000000000000000000000000600052601160045260246000fd5b7f4e487b7100000000000000000000000000000000000000000000000000000000600052601260045260246000fd5b7f4e487b7100000000000000000000000000000000000000000000000000000000600052602260045260246000fd5b7f4e487b7100000000000000000000000000000000000000000000000000000000600052604160045260246000fd5b6000601f19601f8301169050919050565b613ae5816138a0565b8114613af057600080fd5b50565b613afc816138b2565b8114613b0757600080fd5b50565b613b13816138be565b8114613b1e57600080fd5b50565b613b2a8161390a565b8114613b3557600080fd5b5056fe416e204e465420772f20494420257320686173206265656e206d696e74656420746f2025734142434445464748494a4b4c4d4e4f505152535455565758595a6162636465666768696a6b6c6d6e6f707172737475767778797a303132333435363738392b2fa264697066735822122090d1fce82ee32536a989d2ff2287f5d8e91d792224bb95c4fc277b06bed7bf8c64736f6c634300080000333c73766720786d6c6e733d27687474703a2f2f7777772e77332e6f72672f323030302f73766727207072657365727665417370656374526174696f3d27784d696e594d696e206d656574272076696577426f783d273020302033353020333530273e3c646566733e3c6c696e6561724772616469656e742069643d2767726164272078313d273025272079313d273025272078323d2731303025272079323d27302527206772616469656e745472616e73666f726d3d27726f746174652829273e3c73746f70206f66667365743d27302527207374796c653d2773746f702d636f6c6f723a726762283130322c3135332c323535293b73746f702d6f7061636974793a3127202f3e3c73746f70206f66667365743d273130302527207374796c653d2773746f702d636f6c6f723a726762283235352c35312c313032293b73746f702d6f7061636974793a3127202f3e3c2f6c696e6561724772616469656e743e3c2f646566733e3c726563742077696474683d273130302527206865696768743d2731303025272066696c6c3d2775726c2823677261642927202f3e3c7465787420783d273530252720793d27353025272066696c6c3d27236666666666662720666f6e742d73697a653d2732342720666f6e742d66616d696c793d27417269616c2720666f6e742d7765696768743d273630302720646f6d696e616e742d626173656c696e653d276d6964646c652720746578742d616e63686f723d276d6964646c65273e",
  "linkReferences": {},
  "deployedLinkReferences": {}
}